:020000040800F2
:100000001807002029020008310200083302000806
:10001000350200083702000839020008000000001D
:100020000000000000000000000000003B0200088B
:100030003D020008000000003F02000841020008E5
:10004000430200084302000843020008430200087C
:100050004302000843020008E502000843020008CA
:100060002103000849030008710300084302000847
:10007000430200084302000843020008430200084C
:10008000430200084302000843020008430200083C
:10009000430200084302000843020008430200082C
:1000A000430200084302000843020008430200081C
:1000B00043020008430200086D04000843020008E0
:1000C000430200084302000843020008B10300088D
:1000D00043020008430200084302000843020008EC
:1000E00043020008430200084302000843020008DC
:1000F00043020008430200084302000843020008CC
:1001000043020008430200084302000843020008BB
:1001100043020008430200084302000843020008AB
:10012000430200084302000843020008430200089B
:10013000430200084302000843020008430200088B
:10014000430200084302000843020008430200087B
:10015000430200084302000843020008430200086B
:10016000430200084302000843020008430200085B
:100170004302000843020008430200080000000098
:10018000430200084302000800F002F800F03CF8C7
:100190000AA090E8000C82448344AAF10107DA45E2
:1001A00001D100F031F8AFF2090EBAE80F0013F0F8
:1001B000010F18BFFB1A43F001031847D0080000D5
:1001C000F0080000103A24BF78C878C1FAD8520766
:1001D00024BF30C830C144BF04680C6070470000C1
:1001E0000023002400250026103A28BF78C1FBD840
:1001F000520728BF30C148BF0B6070471FB500F0E1
:100200003FFC1FBD10B510BD00F031F81146FFF7DF
:10021000F5FF00F0D3FA00F04FF803B4FFF7F2FF58
:1002200003BC00F057F80000094880470948004720
:10023000FEE7FEE7FEE7FEE7FEE7FEE7FEE7FEE796
:10024000FEE7FEE704480549054A064B70470000F3
:10025000090400088901000818010020180700207F
:100260001803002018030020704770477047754638
:1002700000F02CF8AE4605006946534620F0070012
:10028000854618B020B5FFF7DDFFBDE820404FF0F0
:1002900000064FF000074FF000084FF0000B21F070
:1002A0000701AC46ACE8C009ACE8C009ACE8C0093D
:1002B000ACE8C0098D46704710B50446AFF3008026
:1002C0002046BDE81040FFF7A8BF00000048704777
:1002D000B400002001491820ABBEFEE72600020052
:1002E000704700000A48006800F0010078B1084833
:1002F000006840F001000649086006480088064989
:1003000009680968884202D10120044908607047E1
:10031000143C014000080060300000200000002074
:100320000748006800F0040040B10548006840F04C
:10033000040003490860012002490860704700007A
:10034000143C0140140000200748006800F0080039
:1003500040B10548006840F00800034908600120EA
:100360000249086070470000143C0140180000205A
:100370000748006800F0100040B10548006840F0F0
:10038000100003490860012002490860704700001E
:10039000143C01403400002000F01F020121914074
:1003A0004209920002F1E022C2F8001170470000F9
:1003B0001048806800F0010058B10E48C06881B252
:1003C0000D4802680068401C0B4B18600B4820F871
:1003D00012100848806800F0020050B10848016817
:1003E0000068401C064A1060064830F811000149B8
:1003F000C8607047003001403800002064000020D1
:100400003C0000208C0000201448006840F470007C
:10041000124908601248006840F001001049086065
:1004200000200F49083108600D4800680D49084058
:100430000B4908600C48091D0860081F006820F47B
:100440008020091F0860002005490C3108604FF02A
:1004500000600249803908607047000088ED00E0C4
:1004600000380240FFFFF6FE10300024032005494B
:10047000088000200449086004480068401C0349C3
:1004800008607047320800601008004040000020FB
:1004900010B52C48006840F004002A4908602A483A
:1004A000006840F05100284908602748083000687B
:1004B00040F0A20024490831086022481430006846
:1004C00040F480401F49143108600D201F49086026
:1004D0001E490C39086042F202201D4908601B4881
:1004E0000830006840F00D0018490831086000200D
:1004F0001649091F08600846006840F010000860AF
:1005000012480C38006840F0100010490C3908609F
:1005100000210F480838C1600C480830006840F0DE
:1005200010000A49083108600620FFF735FF08204F
:10053000FFF732FF0920FFF72FFF0A20FFF72CFFFC
:1005400010BD000030380240000802400C3C014061
:10055000083801402648006840F0780024490860C7
:100560002448254908602548234908310860244863
:1005700021492031086023491F484162224823490C
:10058000086023488860234808624FF0CC311F4838
:10059000416221482149086021482049083108600A
:1005A00020481E492031086001041C48416240F285
:1005B000AA201D49086040F2FF301B49083108603D
:1005C0001A4819492031086009480830006840F08D
:1005D000010007490831086043F211004FF0204143
:1005E00008601348486013481349086070470000CA
:1005F000303802408A8A2AA0000C0240CFCF3FF058
:10060000CCC0CCC0CC0C00CC0A80AAAA00100240FE
:100610000FC0FFFFCC0000C0AA0A00AA00140240CD
:10062000FF0F00FFCCCCCC0000180240CCCC0C005B
:10063000F2081402F2081F02040100A00020294958
:10064000096841F48031274A116000BF25490968D3
:1006500001F400310029F9D0411C0846B1F57A7F38
:10066000F4DB20494031096841F080511D4A403295
:1006700011601D49096841F480411B4A1160194904
:100680000831096841F41441164A083211601749CB
:10069000121F1160111F096841F08071121F116053
:1006A00000BF1049096801F000710029F9D040F23B
:1006B00005710F4A11600B490831096821F00301E7
:1006C000084A083211601146096841F002011160C0
:1006D00000BF04490831096801F008010029F8D079
:1006E0007047000000380240007000401854400479
:1006F000003C024010B51948006840F0010017495D
:1007000008601748006840F42A4015490860084608
:10071000806840F42A4088600846006A114908430E
:100720000F4908620D481430006840F480500B49AE
:100730001431086000200C490860C8140860C0200B
:1007400048602320FFF728FE0748006840F040007B
:10075000054908600020C86010BD00003038024024
:1007600000000240000055550030014010B511480E
:10077000006840F004000F4908600F48006820F04E
:1007800001000D49086053200B492831086063209F
:10079000091D0860012008490C31086084200649C1
:1007A00008600846006840F0010008601E20FFF75E
:1007B000F3FD10BD4038024000080040FFF73EFF47
:1007C000FFF7C8FEFFF764FEFFF794FFFFF7CEFFC9
:1007D0009748006820F4784000F50060944908606C
:1007E0000846006820F478702030086008460068E9
:1007F00020F01F00C01D086000208E4908800320E3
:10080000891C088000BF8C4800680028FBD00720A6
:1008100088491031088009E18848006890B10020BB
:1008200086490860012086490880002408E0854840
:10083000006830F81410824A601C22F81010641C02
:10084000072CF4DB80480068002876D000207E4921
:100850000860002407E07D48006830F814007C49F7
:1008600021F81400641C042CF5DB79484088784991
:10087000098840EA0140774908607548C088744992
:10088000898840EA01407449086072480068C0F3F2
:1008900011007049086070480068C0F311006E498B
:1008A00008606C4800686D490968401A6949086029
:1008B000694800686A490968401A674908606548DC
:1008C0000068C0F311006349086063480068C0F322
:1008D0001100614908605F48006880085D49086050
:1008E0005D4800685F4988420CD25B48006800EBB5
:1008F000400101EB80104FF47071B0FBF1F05649EC
:10090000086010E0544800685749081A00EB40019D
:1009100001EB80104FF47071B0FBF1F04FF6FF71F6
:10092000081A4D4908604B480088464909684880C4
:10093000494800884349096888803F48006870B189
:1009400000203D490860042407E04048006830F872
:1009500014003F4921F81400641C082CF5DB4348BF
:10096000006814283BDB00204049086040480088AC
:10097000012811D13E484088324909680880032483
:1009800008E03B49601C31F810002E49096821F845
:100990001400641C082CF4DB3548008802281BD1A5
:1009A0003348C0883249898840EA01402B490860B1
:1009B0002F4840892E49098940EA014028490860AA
:1009C00026480068C0F311002449086024480068E4
:1009D000C0F31100224908600020254908802548FD
:1009E0000068142818DB00202249086000240EE06B
:1009F000174830F81400204921F81400104830F846
:100A000014101D4A04F1080022F81010641C082C70
:100A1000EEDB00200A4908801848006830B1002049
:100A2000164908601149086012490860F4E60000A0
:100A30002C0000203008006018000020000000207A
:100A400044000020040000201400002008000020C2
:100A50005400002024000020280000201C0000205A
:100A600020000020B8640300FFFF030038000020CE
:100A7000640000203C0000208C0000203400002096
:100A80004FF04070E1EE100A70470000AC0A000819
:100A90000000002044000000C4010008F00A000823
:100AA00044000020D4060000E0010008000000001F
:100AB000400000602008006000000000000000000E
:100AC0000000000000000000000000000000000026
:100AD0000000000000000000000000002C000020CA
:100AE0000000000000000000000000000000000006
:0400000508000229C4
:00000001FF
