:020000040800F2
:100000001807002029020008310200083302000806
:10001000350200083702000839020008000000001D
:100020000000000000000000000000003B0200088B
:100030003D020008000000003F02000841020008E5
:10004000430200084302000843020008430200087C
:100050004302000843020008E502000843020008CA
:100060002103000849030008710300084302000847
:10007000430200084302000843020008430200084C
:10008000430200084302000843020008430200083C
:10009000430200084302000843020008430200082C
:1000A000430200084302000843020008430200081C
:1000B00043020008430200086D04000843020008E0
:1000C000430200084302000843020008B10300088D
:1000D00043020008430200084302000843020008EC
:1000E00043020008430200084302000843020008DC
:1000F00043020008430200084302000843020008CC
:1001000043020008430200084302000843020008BB
:1001100043020008430200084302000843020008AB
:10012000430200084302000843020008430200089B
:10013000430200084302000843020008430200088B
:10014000430200084302000843020008430200087B
:10015000430200084302000843020008430200086B
:10016000430200084302000843020008430200085B
:100170004302000843020008430200080000000098
:10018000430200084302000800F002F800F03CF8C7
:100190000AA090E8000C82448344AAF10107DA45E2
:1001A00001D100F031F8AFF2090EBAE80F0013F0F8
:1001B000010F18BFFB1A43F001031847D8080000CD
:1001C000F8080000103A24BF78C878C1FAD852075E
:1001D00024BF30C830C144BF04680C6070470000C1
:1001E0000023002400250026103A28BF78C1FBD840
:1001F000520728BF30C148BF0B6070471FB500F0E1
:1002000043FC1FBD10B510BD00F031F81146FFF7DB
:10021000F5FF00F0CFFA00F04FF803B4FFF7F2FF5C
:1002200003BC00F057F80000094880470948004720
:10023000FEE7FEE7FEE7FEE7FEE7FEE7FEE7FEE796
:10024000FEE7FEE704480549054A064B70470000F3
:10025000090400088901000818010020180700207F
:100260001803002018030020704770477047754638
:1002700000F02CF8AE4605006946534620F0070012
:10028000854618B020B5FFF7DDFFBDE820404FF0F0
:1002900000064FF000074FF000084FF0000B21F070
:1002A0000701AC46ACE8C009ACE8C009ACE8C0093D
:1002B000ACE8C0098D46704710B50446AFF3008026
:1002C0002046BDE81040FFF7A8BF00000048704777
:1002D000B400002001491820ABBEFEE72600020052
:1002E000704700000A48006800F0010078B1084833
:1002F000006840F001000649086006480088064989
:1003000009680968884202D10120044908607047E1
:10031000143C014000080060300000200000002074
:100320000748006800F0040040B10548006840F04C
:10033000040003490860012002490860704700007A
:10034000143C0140140000200748006800F0080039
:1003500040B10548006840F00800034908600120EA
:100360000249086070470000143C0140180000205A
:100370000748006800F0100040B10548006840F0F0
:10038000100003490860012002490860704700001E
:10039000143C01403400002000F01F020121914074
:1003A0004209920002F1E022C2F8001170470000F9
:1003B0001048806800F0010058B10E48C06881B252
:1003C0000D4802680068401C0B4B18600B4820F871
:1003D00012100848806800F0020050B10848016817
:1003E0000068401C064A1060064830F811000149B8
:1003F000C8607047003001403800002064000020D1
:100400003C0000208C0000201448006840F470007C
:10041000124908601248006840F001001049086065
:1004200000200F49083108600D4800680D49084058
:100430000B4908600C48091D0860081F006820F47B
:100440008020091F0860002005490C3108604FF02A
:1004500000600249803908607047000088ED00E0C4
:1004600000380240FFFFF6FE10300024002005494E
:10047000086003200449088004480068401C0349C0
:1004800008607047100800403208006040000020FB
:1004900010B52C48006840F004002A4908602A483A
:1004A000006840F05100284908602748083000687B
:1004B00040F0A20024490831086022481430006846
:1004C00040F480401F49143108600D201F49086026
:1004D0001E490C39086042F202201D4908601B4881
:1004E0000830006840F00D0018490831086000200D
:1004F0001649091F08600846006840F010000860AF
:1005000012480C38006840F0100010490C3908609F
:1005100000210F480838C1600C480830006840F0DE
:1005200010000A49083108600620FFF735FF08204F
:10053000FFF732FF0920FFF72FFF0A20FFF72CFFFC
:1005400010BD000030380240000802400C3C014061
:10055000083801402648006840F0780024490860C7
:100560002448254908602548234908310860244863
:1005700021492031086023491F484162224823490C
:10058000086023488860234808624FF0CC311F4838
:10059000416221482149086021482049083108600A
:1005A00020481E492031086001041C48416240F285
:1005B000AA201D49086040F2FF301B49083108603D
:1005C0001A4819492031086009480830006840F08D
:1005D000010007490831086043F211004FF0204143
:1005E00008601348486013481349086070470000CA
:1005F000303802408A8A2AA0000C0240CFCF3FF058
:10060000CCC0CCC0CC0C00CC0A80AAAA00100240FE
:100610000FC0FFFFCC0000C0AA0A00AA00140240CD
:10062000FF0F00FFCCCCCC0000180240CCCC0C005B
:10063000F2081402F2081F02040100A00020294958
:10064000096841F48031274A116000BF25490968D3
:1006500001F400310029F9D0411C0846B1F57A7F38
:10066000F4DB20494031096841F080511D4A403295
:1006700011601D49096841F480411B4A1160194904
:100680000831096841F41441164A083211601749CB
:10069000121F1160111F096841F08071121F116053
:1006A00000BF1049096801F000710029F9D040F23B
:1006B00005710F4A11600B490831096821F00301E7
:1006C000084A083211601146096841F002011160C0
:1006D00000BF04490831096801F008010029F8D079
:1006E0007047000000380240007000401854400479
:1006F000003C024010B51948006840F0010017495D
:1007000008601748006840F42A4015490860084608
:10071000806840F42A4088600846006A114908430E
:100720000F4908620D481430006840F480500B49AE
:100730001431086000200C490860C8140860C0200B
:1007400048602320FFF728FE0748006840F040007B
:10075000054908600020C86010BD00003038024024
:1007600000000240000055550030014010B50F4810
:10077000006840F004000D4908600D48006820F052
:1007800001000B490860532009492831086040F2F4
:10079000F310091D0860012005490C3108608C2008
:1007A000034908601E20FFF7F7FD10BD40380240E6
:1007B00000080040FFF742FFFFF7CCFEFFF768FE9E
:1007C000FFF798FFFFF7D2FF9A48006820F47840BF
:1007D00000F50060974908600846006820F47870CA
:1007E000203008600846006820F01F00C01D086027
:1007F0000020914908800320891C088000BF8F4891
:1008000000680028FBD007208B491031088010E1D8
:100810008B48006890B1002089490860012089490F
:100820000880002408E08848006830F81410854AE1
:10083000601C22F81010641C072CF4DB834800684D
:10084000002876D0002081490860002407E0804815
:10085000006830F814007F4921F81400641C042C4F
:10086000F5DB7C4840887B49098840EA01407A49A9
:1008700008607848C0887749898840EA014077490C
:10088000086075480068C0F3110073490860734838
:100890000068C0F31100714908606F480068704932
:1008A0000968401A6C4908606C4800686D4909681D
:1008B000401A6A49086068480068C0F31100664938
:1008C000086066480068C0F3110064490860624827
:1008D0000068800860490860604800686249884292
:1008E0000CD25E48006800EB400101EB80104FF431
:1008F0007071B0FBF1F05949086010E0574800688A
:100900005A49081A00EB400101EB80104FF4707156
:10091000B0FBF1F04FF6FF71081A504908604E48DD
:1009200000884949096848804C4800884649096858
:1009300088804248006870B1002040490860042463
:1009400007E04348006830F81400424921F81400D9
:10095000641C082CF5DB4648006814283BDB0020AB
:100960004349086043480088012811D14148408824
:10097000354909680880032408E03E49601C31F8C5
:1009800010003149096821F81400641C082CF4DBBC
:100990003848008802281BD13648C08835498988E4
:1009A00040EA01402E4908603248408931490989AE
:1009B00040EA01402B49086029480068C0F3110053
:1009C0002749086027480068C0F3110025490860DE
:1009D00000202849088028480068142818DB0020D7
:1009E0002549086000240EE01A4830F81400234915
:1009F00021F81400134830F81410204A04F10800BC
:100A000022F81010641C082CEEDB00200D49088031
:100A10001B48006868B1002019490860194800683F
:100A200040F0010017490860002011490860124990
:100A30000860EDE62C00002030080060180000205F
:100A400000000020440000200400002014000020CA
:100A5000080000205400002024000020280000206E
:100A60001C00002020000020B8640300FFFF0300EA
:100A700038000020640000203C0000208C00002092
:100A800034000020000800404FF04070E1EE100AF2
:100A900070470000B40A0008000000204400000075
:100AA000C4010008F80A000844000020D406000031
:100AB000E001000800000000400000602008006025
:100AC0000000000000000000000000000000000026
:100AD0000000000000000000000000000000000016
:100AE000000000002C0000200000000000000000BA
:080AF0000000000000000000FE
:0400000508000229C4
:00000001FF
