:020000040800F2
:10000000000700202902000831020008330200081E
:10001000350200083702000839020008000000001D
:100020000000000000000000000000003B0200088B
:100030003D020008000000003F02000841020008E5
:10004000430200084302000843020008430200087C
:100050004302000843020008E502000843020008CA
:100060002103000849030008710300084302000847
:10007000430200084302000843020008430200084C
:10008000430200084302000843020008430200083C
:10009000430200084302000843020008430200082C
:1000A000430200084302000843020008430200081C
:1000B000430200084302000843020008430200080C
:1000C000430200084302000843020008B10300088D
:1000D00043020008430200084302000843020008EC
:1000E00043020008430200084302000843020008DC
:1000F00043020008430200084302000843020008CC
:1001000043020008430200084302000843020008BB
:1001100043020008430200084302000843020008AB
:10012000430200084302000843020008430200089B
:10013000430200084302000843020008430200088B
:10014000430200084302000843020008430200087B
:10015000430200084302000843020008430200086B
:10016000430200084302000843020008430200085B
:100170004302000843020008430200080000000098
:10018000430200084302000800F002F800F03CF8C7
:100190000AA090E8000C82448344AAF10107DA45E2
:1001A00001D100F031F8AFF2090EBAE80F0013F0F8
:1001B000010F18BFFB1A43F0010318479407000012
:1001C000B4070000103A24BF78C878C1FAD85207A3
:1001D00024BF30C830C144BF04680C6070470000C1
:1001E0000023002400250026103A28BF78C1FBD840
:1001F000520728BF30C148BF0B6070471FB500F0E1
:10020000A1FB1FBD10B510BD00F031F81146FFF77E
:10021000F5FF00F0D1FA00F04FF803B4FFF7F2FF5A
:1002200003BC00F057F80000094880470948004720
:10023000FEE7FEE7FEE7FEE7FEE7FEE7FEE7FEE796
:10024000FEE7FEE704480549054A064B70470000F3
:1002500009040008890100080001002000070020AF
:100260000003002000030020704770477047754668
:1002700000F02CF8AE4605006946534620F0070012
:10028000854618B020B5FFF7DDFFBDE820404FF0F0
:1002900000064FF000074FF000084FF0000B21F070
:1002A0000701AC46ACE8C009ACE8C009ACE8C0093D
:1002B000ACE8C0098D46704710B50446AFF3008026
:1002C0002046BDE81040FFF7A8BF00000048704777
:1002D000A000002001491820ABBEFEE72600020066
:1002E000704700000A48006800F0010078B1084833
:1002F000006840F001000649086006480088064989
:1003000009680968884202D10120044908607047E1
:10031000143C014000080060200000200000002084
:100320000748006800F0040040B10548006840F04C
:10033000040003490860012002490860704700007A
:10034000143C0140140000200748006800F0080039
:1003500040B10548006840F00800034908600120EA
:100360000249086070470000143C0140180000205A
:100370000748006800F0100040B10548006840F0F0
:10038000100003490860012002490860704700001E
:10039000143C01402400002000F01F020121914084
:1003A0004209920002F1E022C2F8001170470000F9
:1003B0001048806800F0010058B10E48C06881B252
:1003C0000D4802680068401C0B4B18600B4820F871
:1003D00012100848806800F0020050B10848016817
:1003E0000068401C064A1060064830F811000149B8
:1003F000C8607047003001402800002050000020F5
:100400002C000020780000201448006840F47000A0
:10041000124908601248006840F001001049086065
:1004200000200F49083108600D4800680D49084058
:100430000B4908600C48091D0860081F006820F47B
:100440008020091F0860002005490C3108604FF02A
:1004500000600249803908607047000088ED00E0C4
:1004600000380240FFFFF6FE1030002414480068F8
:1004700040F480001249086012481349086013488C
:100480001149083108601248091D08600E480068CB
:1004900040F001000C4908600E480B4948310860E3
:1004A0000A480949503108600B48091D0860064890
:1004B0004830006840F00100034948310860704747
:1004C00030380240202C0206106402400C300140FB
:1004D00050000020602C03067800002010B52C4846
:1004E000006840F004002A4908602A48006840F08B
:1004F00051002849086027480830006840F0A200F1
:1005000024490831086022481430006840F48040D3
:100510001F49143108600D201F4908601E490C391D
:10052000086042F202201D4908601B48083000683C
:1005300040F00D0018490831086000201649091FD5
:1005400008600846006840F01000086012480C3847
:10055000006840F0100010490C39086000210F4875
:100560000838C1600C480830006840F010000A49A3
:10057000083108600620FFF70FFF0820FFF70CFF87
:100580000920FFF709FF0A20FFF706FF10BD000052
:1005900030380240000802400C3C0140083801405D
:1005A0002648006840F0780024490860244825491E
:1005B0000860254823490831086024482149203132
:1005C000086023491F4841622248234908602348A4
:1005D0008860234808624FF0CC311F4841622148AF
:1005E00021490860214820490831086020481E49F7
:1005F0002031086001041C48416240F2AA201D49D4
:10060000086040F2FF301B49083108601A48194958
:100610002031086009480830006840F001000749AF
:100620000831086043F211004FF020410860134880
:100630004860134813490860704700003038024092
:100640008A8A2AA0000C0240CFCF3FF0CCC0CCC099
:10065000CC0C00CC0A80AAAA001002400FC0FFFFF9
:10066000CC0000C0AA0A00AA00140240FF0F00FF3D
:10067000CCCCCC0000180240CCCC0C00F208140208
:10068000F2081F02040100A000202949096841F472
:100690008031274A116000BF2549096801F4003103
:1006A0000029F9D0411C0846B1F57A7FF4DB2049D6
:1006B0004031096841F080511D4A403211601D49A6
:1006C000096841F480411B4A1160194908310968E1
:1006D00041F41441164A083211601749121F116083
:1006E000111F096841F08071121F116000BF10498D
:1006F000096801F000710029F9D040F205710F4A34
:1007000011600B490831096821F00301084A0832D9
:1007100011601146096841F00201116000BF0449EF
:100720000831096801F008010029F8D0704700007D
:10073000003802400070004018544004003C024061
:1007400010B51948006840F00100174908601748C3
:10075000006840F42A40154908600846806840F463
:100760002A4088600846006A114908430F49086218
:100770000D481430006840F480500B491431086073
:1007800000200C490860C8140860C020486023207D
:10079000FFF702FE0748006840F040000549086086
:1007A0000020C86010BD0000303802400000024048
:1007B0000000555500300140FFF766FFFFF7F0FEDF
:1007C000FFF78CFEFFF7BCFFFFF750FE4F480068B5
:1007D00020F4784000F500604C4908600846006845
:1007E00020F47870203008600846006820F01F0070
:1007F000C01D08600020464908800320891C08802D
:1008000007204349103108807EE04248006890B1DB
:1008100000204049086001203F490880002408E08A
:100820003E48006830F814103B4A601C22F8101053
:10083000641C072CF4DB3A48006870B1002038498A
:100840000860002407E03748006830F81400364993
:1008500021F81400641C042CF5DB3448006870B1E6
:10086000002032490860042407E02E48006830F870
:1008700014002D4921F81400641C072CF5DB2C48CA
:100880000068142815DB00202949086029480088E1
:1008900060B1002408E02749601C31F810001F49AE
:1008A000096821F81400641C082CF4DB002021499D
:1008B00008802148006814281CDB00201E490860BD
:1008C00003201349891C088000240EE0164830F8E4
:1008D00014001A4921F814000F4830F81410174A70
:1008E00004F1080022F81010641C082CEEDB002034
:1008F000094908801248006830B10020104908609A
:100900000B4908600C4908607FE700001C000020CC
:1009100030080060000000203000002004000020AB
:1009200014000020080000204000002018000020D3
:1009300028000020500000202C000020780000201B
:10094000240000204FF04070E1EE100A70470000D4
:10095000700900080000002030000000C4010008F9
:10096000A009000830000020D0060000E0010008C7
:10097000000000004000006020080060000000004F
:100980000000000000000000000000000000000067
:100990001C0000200000000000000000000000001B
:0400000508000229C4
:00000001FF
