:020000040800F2
:10000000F806002029020008310200083302000827
:10001000350200083702000839020008000000001D
:100020000000000000000000000000003B0200088B
:100030003D020008000000003F02000841020008E5
:10004000430200084302000843020008430200087C
:100050004302000843020008E502000843020008CA
:100060002103000849030008710300084302000847
:10007000430200084302000843020008430200084C
:10008000430200084302000843020008430200083C
:10009000430200084302000843020008430200082C
:1000A000430200084302000843020008430200081C
:1000B0004302000843020008150400084302000838
:1000C00043020008430200084302000843020008FC
:1000D00043020008430200084302000843020008EC
:1000E00043020008430200084302000843020008DC
:1000F00043020008430200084302000843020008CC
:1001000043020008430200084302000843020008BB
:1001100043020008430200084302000843020008AB
:10012000430200084302000843020008430200089B
:10013000430200084302000843020008430200088B
:10014000430200084302000843020008430200087B
:10015000430200084302000843020008430200086B
:10016000430200084302000843020008430200085B
:100170004302000843020008430200080000000098
:10018000430200084302000800F002F800F03CF8C7
:100190000AA090E8000C82448344AAF10107DA45E2
:1001A00001D100F031F8AFF2090EBAE80F0013F0F8
:1001B000010F18BFFB1A43F001031847BC070000EA
:1001C000DC070000103A24BF78C878C1FAD852077B
:1001D00024BF30C830C144BF04680C6070470000C1
:1001E0000023002400250026103A28BF78C1FBD840
:1001F000520728BF30C148BF0B6070471FB500F0E1
:10020000B5FB1FBD10B510BD00F031F81146FFF76A
:10021000F5FF00F0CBFA00F04FF803B4FFF7F2FF60
:1002200003BC00F057F80000094880470948004720
:10023000FEE7FEE7FEE7FEE7FEE7FEE7FEE7FEE796
:10024000FEE7FEE704480549054A064B70470000F3
:10025000B103000889010008F8000020F80600201A
:10026000F8020020F802002070477047704775467A
:1002700000F02CF8AE4605006946534620F0070012
:10028000854618B020B5FFF7DDFFBDE820404FF0F0
:1002900000064FF000074FF000084FF0000B21F070
:1002A0000701AC46ACE8C009ACE8C009ACE8C0093D
:1002B000ACE8C0098D46704710B50446AFF3008026
:1002C0002046BDE81040FFF7A8BF00000048704777
:1002D0009800002001491820ABBEFEE7260002006E
:1002E000704700000A48006800F0010078B1084833
:1002F000006840F001000649086006480088064989
:1003000009680968884202D10120044908607047E1
:10031000143C014000080060200000200000002084
:100320000748006800F0040040B10548006840F04C
:10033000040003490860012002490860704700007A
:10034000143C0140140000200748006800F0080039
:1003500040B10548006840F00800034908600120EA
:100360000249086070470000143C0140180000205A
:100370000748006800F0100040B10548006840F0F0
:10038000100003490860012002490860704700001E
:10039000143C01402400002000F01F020121914084
:1003A0004209920002F1E022C2F8001170470000F9
:1003B0001448006840F47000124908601248006850
:1003C00040F001001049086000200F490831086022
:1003D0000D4800680D4908400B4908600C48091D8C
:1003E0000860081F006820F48020091F08600020B2
:1003F00005490C3108604FF00060024980390860FF
:100400007047000088ED00E000380240FFFFF6FE74
:1004100010300024002004490860012003490860CE
:100420000349086070470000100800400C000020DD
:10043000100000201448006840F480001249086051
:1004400012481349086013481149083108601248DE
:10045000091D08600E48006840F001000C49086062
:100460000E480B49483108600A4809495031086074
:100470000B48091D086006484830006840F001003C
:10048000034948310860704730380240202C02068A
:10049000106402400C30014048000020602C03062C
:1004A0007000002010B52748006840F0040025497E
:1004B00008602548006840F0510023490860224840
:1004C0000830006840F0A2001F49083108601D484C
:1004D0001430006840F480401A49143108600D203F
:1004E0001A49086019490C39086042F2022018497B
:1004F00008601648001F006840F010001349091FEB
:10050000086012480C38006840F010000F490C39A0
:10051000086000210E480838C1600C4808300068A7
:1005200040F010000949083108600A20FFF734FF45
:100530000620FFF731FF0820FFF72EFF0920FFF705
:100540002BFF10BD30380240000802400C3C014037
:10055000083801402648006840F0780024490860C7
:100560002448254908602548234908310860244863
:1005700021492031086023491F484162224823490C
:10058000086023488860234808624FF0CC311F4838
:10059000416221482149086021482049083108600A
:1005A00020481E492031086001041C48416240F285
:1005B000AA201D49086040F2FF301B49083108603D
:1005C0001A4819492031086009480830006840F08D
:1005D000010007490831086043F211004FF0204143
:1005E00008601348486013481349086070470000CA
:1005F000303802408A8A2AA0000C0240CFCF3FF058
:10060000CCC0CCC0CC0C00CC0A80AAAA00100240FE
:100610000FC0FFFFCC0000C0AA0A00AA00140240CD
:10062000FF0F00FFCCCCCC0000180240CCCC0C005B
:10063000F2081402F2081F02040100A00020294958
:10064000096841F48031274A116000BF25490968D3
:1006500001F400310029F9D0411C0846B1F57A7F38
:10066000F4DB20494031096841F080511D4A403295
:1006700011601D49096841F480411B4A1160194904
:100680000831096841F41441164A083211601749CB
:10069000121F1160111F096841F08071121F116053
:1006A00000BF1049096801F000710029F9D040F23B
:1006B00005710F4A11600B490831096821F00301E7
:1006C000084A083211601146096841F002011160C0
:1006D00000BF04490831096801F008010029F8D079
:1006E0007047000000380240007000401854400479
:1006F000003C02401948006840F0010017490860BA
:100700001748006840F42A40154908600846806888
:1007100040F42A4088600846006A1249084310499C
:1007200008620E481430006820F480500B491431E0
:1007300008600846006840F48050086000200A49BC
:100740000860C8140860032048600846006840F04C
:10075000400008600020C860704700003038024048
:1007600000000240000055550030014010B51E2029
:10077000FFF712FE0B48006840F0040009490860CA
:100780000020094908605320091D08606320091DE5
:10079000086001200449183908608C200249243976
:1007A000086010BD4038024024080040FFF746FFB3
:1007B000FFF7D0FEFFF776FEFFF79CFFFFF73AFE4C
:1007C000FFF7D4FF5948006820F4784000F5006036
:1007D000564908600846006820F4787020300860A8
:1007E0000846006820F01F00C01D08600020504926
:1007F00008800320891C088007204D49103108809B
:1008000001204C49086000204B4908608DE04B48AE
:10081000006890B1002049490860012048490880DB
:10082000002408E04748006830F81410444A601C6F
:1008300022F81010641C072CF4DB4348006870B1E8
:10084000002041490860002407E04048006830F873
:1008500014003F4921F81400641C042CF5DB3D48CA
:10086000006870B100203B490860042407E0374865
:10087000006830F81400364921F81400641C072C75
:10088000F5DB3548006800284FD000203249086069
:1008900003202749891C08803048006820F00100A7
:1008A0002E4908602D484830006820F001002B498F
:1008B0004831086029480838006829490843274911
:1008C000083908602748008860B1002408E02549FD
:1008D000601C31F810001B49096821F81400641CE1
:1008E000082CF4DB00201F49088000240AE0601C6B
:1008F0001D4921F81400083081B21B4A401E22F81D
:100900001010641C082CF2DB00200D4908801348ED
:10091000006840F001001149086010484830006844
:1009200040F001000D494831086070E71C000020CC
:10093000300800600C0000201000002000000020A3
:1009400028000020040000201400002008000020DF
:10095000380000201800002024000020106402400D
:100960002000400848000020700000204FF0407038
:10097000E1EE100A7047000098090008000000200E
:1009800028000000C4010008C00900082800002059
:10099000D0060000E00100080000000040000060F8
:1009A00020080060000000000000000000000000BF
:1009B00000000000000000001C00002000000000FB
:0400000508000229C4
:00000001FF
